:030000000213D90F
:0C13D900787FE4F6D8FD758156021420E0
:100FD600D6B1C1F7B5E7BBFABCD32DBCF5CBD9BCAE
:100FE600B0B2E2CBD9CFB5CDB300BCFCC5CC2B3A61
:100FF600B2BDB3A4BCD3CBD900BCFCC5CC2D3AB290
:10100600BDB3A4BCF5CBD900BCFCC5CC3D3ACBB333
:10101600CAB1D5EBD7AA00BCFCC5CC6F6E2F633A1C
:10102600C4E6CAB1D5EBD7AA00B7BDCFF23A00D70E
:10103600AACBD93A0020203520202020722F6D69B6
:101046006E00722F6D696E00202032352020202020
:10105600722F6D696E0020343020202020722F6D93
:10106600696E0020363020202020722F6D696E00B8
:1010760020383020202020722F6D696E00313030EC
:1010860020202020722F6D696E0031323020202002
:1010960020722F6D696E0031333520202020722F8B
:1010A6006D696E0031353020202020722F6D696EFB
:1010B60000B7BDCFF23A20CBB3CAB1D5EB00B7BD6E
:0F10C600CFF23A20C4E6CAB1D5EB00253364005F
:101573000A0E00000000000000000000030A000043
:101583000001180002190064011B05010D01020886
:02159300000056
:100E1F00121465E4FDFF1215A37BFF7A0F79D6E458
:100E2F00FDFF120C3E7BFF7A0F79F07D0CE4FF1271
:100E3F000C3E7BFF7A0F79FF7D18E4FF120C3E7B8F
:100E4F00FF7A10790E7D24E4FF120C3E7BFF7A109F
:100E5F00791D7D30E4FF120C3E7BFF7A10792F7DD8
:100E6F0048E4FF120C3E7BFF7A1079357D54E4FF86
:100E7F00120C3EC291758915758D3C758BB0E4F5DA
:100E8F008CF58AD2A9D2ABD28CD28E1213468F1880
:100E9F00E51812111F0F862B0F8E2D0FC32F0ED299
:100EAF00310EF2320F05330F18340F2B350F3E363C
:100EBF000F50370F62380F74390FA33D0FB1630016
:100ECF00000E9A751900751A0A7BFF7A10793B7D0F
:100EDF0060E4FF120C3E7BFF7A1079487D607F3C07
:100EEF00020FBD751900751A197BFF7A10794E7DA7
:100EFF0060E4FF020FBD751900751A287BFF7A1089
:100F0F00795C7D60E4FF020FBD751900751A377BA0
:100F1F00FF7A1079697D60E4FF020FBD75190075C6
:100F2F001A467BFF7A1079767D60E4FF020FBD755C
:100F3F001900751A5A7BFF7A1079837D60E4FF8060
:100F4F006D751900751A6E7BFF7A1079907D60E4CC
:100F5F00FF805B751900751A827BFF7A10799D7D72
:100F6F0060E4FF8049751900751A967BFF7A107936
:100F7F00AA7D60E4FF80377BFF7A1079B78008C2C3
:100F8F00907BFF7A1079C47D48E4FF120C3E12115A
:100F9F0080020E9AD2907BFF7A1079B77D48E4FFDA
:100FAF00800CC2907BFF7A1079C47D48E4FF120C4D
:100FBF003E020E9A7BFF7A1079B77D48E4FF120C40
:070FCF003E121180020E9A90
:10134600C294D295D296D297D2B0D2B1D2B2D2B3FB
:10135600000020B0037F372220B1037F382220B25D
:10136600037F392220B3037F2F22D294C295D296CF
:10137600D297000020B0037F342220B1037F3522AC
:1013860020B2037F362220B3037F2A22D294D2953D
:10139600C296D297000020B0037F312220B1037F8E
:1013A600322220B2037F332220B3037F2D22D29430
:1013B600D295D296C297000020B0037F632220B157
:1013C600037F302220B2037F3D2220B3037F2B22EE
:0313D6007F002273
:10162100EFD39400400B7E0F7D0BDDFEDEFA1F80B1
:01163100EFC9
:011632002295
:03001B0002121AB4
:10121A00C0E0C0F0C083C082C0D075D000C000C09A
:10122A0001C002C003C004C005C006C007C28E05C3
:10123A000DAF8AEF2509F509E43508F508E50D64CF
:10124A0033703A7538FF753910753AD185083B8580
:10125A00093CFB7A00790E12093E7B007A00790E6E
:10126A007D6CE4FF120C3E7BFF7A1079487D6C7F1F
:10127A003C120C3E750D01750800750900758D3C10
:10128A00758BB0758C00758A00D28ED007D006D0C7
:10129A0005D004D003D002D001D000D0D0D082D063
:0612AA0083D0F0D0E03219
:10118000D2AFC3E51A9496E519940040067519008C
:10119000751A96D3E51A940AE51994005006751944
:1011A00000751A0AC291C374A0951AFF121621D2B3
:1011B00091AF1A1216211213468F18E518B42D0F8D
:1011C000C3E51A951BF51AE5199400F51980B3E5E6
:1011D00018B42B0DE51B251AF51AE43519F51980FD
:1011E000A1E518B43D0AD2907BFF7A1079B7800D43
:1011F000E518B46312C2907BFF7A1079C47D48E48D
:10120000FF120C3E021182E518B42A04C291800735
:0A121000E5187003021182C2AF223C
:10001E000102040810204080000103070F1F3F7FDC
:10002E00FF0080C0E0F0F8FCFEFF000000000000C2
:10003E0000FFFFFFFFFF00000000000000000000B7
:10004E0000000030787878303000303000000066E4
:10005E0066662400000000000000006C6CFE6C6CF4
:10006E006CFE6C6C000030307CC0C0780C0CF8302C
:10007E003000000000C4CC183060CC8C0000007042
:10008E00D8D870FADECCDC7600000030303060005C
:10009E00000000000000000C183060606030180C8A
:1000AE000000006030180C0C0C18306000000000CE
:1000BE0000663CFF3C660000000000000018187E41
:1000CE001818000000000000000000000000383882
:1000DE0060000000000000FE0000000000000000B4
:1000EE0000000000000038380000000002060C1866
:1000FE003060C0800000007CC6CEDED6F6E6C67C40
:10010E000000001030F03030303030FC000000784D
:10011E00CCCC0C183060CCFC00000078CC0C0C3829
:10012E000C0CCC780000000C1C3C6CCCFE0C0C1E95
:10013E00000000FCC0C0C0F80C0CCC7800000038E9
:10014E0060C0C0F8CCCCCC78000000FEC6C6060C51
:10015E001830303000000078CCCCEC78DCCCCC7889
:10016E0000000078CCCCCC7C181830700000000059
:10017E000038380000383800000000000038380021
:10018E00003838183000000C183060C06030180C81
:10019E000000000000007E007E00000000000060F5
:1001AE0030180C060C18306000000078CC0C18309B
:1001BE00300030300000007CC6C6DEDEDEC0C07C03
:1001CE000000003078CCCCCCFCCCCCCC000000FCB9
:1001DE006666667C666666FC0000003C66C6C0C04D
:1001EE00C0C6663C000000F86C66666666666CF813
:1001FE00000000FE6260647C646062FE000000FE2F
:10020E006662647C646060F00000003C66C6C0C03C
:10021E00CEC6663E000000CCCCCCCCFCCCCCCCCC3C
:10022E000000007830303030303030780000001E62
:10023E000C0C0C0CCCCCCC78000000E6666C6C7808
:10024E006C6C66E6000000F060606060626666FEE0
:10025E00000000C6EEFEFED6C6C6C6C6000000C62C
:10026E00C6E6F6FEDECEC6C6000000386CC6C6C6B2
:10027E00C6C66C38000000FC6666667C606060F086
:10028E00000000386CC6C6C6CEDE7C0C1E0000FC1C
:10029E006666667C6C6666E600000078CCCCC07044
:1002AE0018CCCC78000000FCB430303030303078D0
:1002BE00000000CCCCCCCCCCCCCCCC78000000CC8C
:1002CE00CCCCCCCCCCCC7830000000C6C6C6C6D6C2
:1002DE00D66C6C6C000000CCCCCC783078CCCCCC0E
:1002EE00000000CCCCCCCC7830303078000000FE52
:1002FE00CE9818306062C6FE0000003C30303030C0
:10030E003030303C0000000080C06030180C060217
:10031E000000003C0C0C0C0C0C0C0C3C00001038BB
:10032E006CC600000000000000000000000000008D
:10033E0000000000FF003030180000000000000038
:10034E00000000000000780C7CCCCC76000000E0B1
:10035E0060607C66666666DC00000000000078CC9B
:10036E00C0C0CC780000001C0C0C7CCCCCCCCC7665
:10037E0000000000000078CCFCC0CC7800000038F3
:10038E006C6060F8606060F000000000000076CCE9
:10039E00CCCC7C0CCC7800E060606C76666666E651
:1003AE0000000018180078181818187E0000000CAD
:1003BE000C003C0C0C0C0CCCCC7800E06060666C35
:1003CE00786C66E600000078181818181818187E51
:1003DE00000000000000FCD6D6D6D6C600000000F5
:1003EE000000F8CCCCCCCCCC00000000000078CCC7
:1003FE00CCCCCC78000000000000DC666666667C23
:10040E0060F00000000076CCCCCCCC7C0C1E000042
:10041E000000EC6E766060F000000000000078CC0A
:10042E006018CC78000000002060FC6060606C38C2
:10043E00000000000000CCCCCCCCCC76000000003C
:10044E000000CCCCCCCC7830000000000000C6C63A
:10045E00D6D66C6C000000000000C66C38386CC636
:10046E00000000000000666666663C0C18F0000096
:10047E000000FC8C1860C4FC0000001C303060C012
:10048E006030301C000000181818180018181818C2
:10049E00000000E03030180C183030E0000000731F
:1004AE00DACE0000000000000000D6D004000400E8
:1004BE007FC04440444044407FC004000400040018
:1004CE0004000000CEC408000440FFE0110011003B
:1004DE0011000A000A0004001B00E0E00000B2E276
:1004EE009E20522012A096A056A056A056A0D6A08E
:1004FE0044A04A2071600000CAD480C040A05FE0D2
:10050E000080C0804F804480448057A06C604020A3
:10051E000000D2BA81005FE0250085C0AA404EC01F
:10052E005A404980C88049404E200000BEA71F8017
:10053E0010801F8010801F8000007BE04A207BE02F
:10054E004A207BE00000CFD43F8020803F80208077
:10055E003F8000004A402A402A800B00FFE0000046
:10056E00CABE00807FC000000000FFE004001480BF
:10057E002440442084201C000000BCFC41007FC0AD
:10058E008940EBE05D4047C0F50057E049006D0043
:10059E0053E00000C5CC08003F802480FFE0288097
:1005AE0025804000BFC02A402A40FFE00000B0B4C2
:1005BE0021002FE0F820220032006FE0A4402480BA
:1005CE0023802140EE200000B5E3040007C00400A4
:1005DE0004003F80208020803F8000004940C920D9
:1005EE000000B6A804007FE0C02000007FC0040019
:1005FE00240027C034004C0083E00000CEBB240052
:10060E0022005FE04000C8804880448045004500DD
:10061E0041005FE00000D6B10400FFE004003F801F
:10062E00208020803F8020803F802080FFE00000DF
:10063E00CFDF2280224052609780E2604F80B2402E
:10064E00C2803120C6A018600000BBE62100210048
:10065E0052809440EBA020005FE0E2000280F44064
:10066E008FE00000D6C6102054207EA090A0FEA0E1
:10067E0010A07EA052A05220562010E00000CDBC4B
:10068E007FE048205F206A2044204A2075A0422047
:10069E004C2042207FE00000C6AC22002200220047
:1006AE003FE0200020003F0021002100410081009A
:1006BE000000BBE62100210052809440EBA02000F8
:1006CE005FE0E2000280F4408FE00000D6C610200A
:1006DE0054207EA090A0FEA010A07EA052A052207A
:1006EE00562010E00000C1F782005FE04200048057
:1006FE00AFC060402A804A80CAA052A062E00000CB
:10070E00B5E7040004407FE044407FC044404440CD
:10071E007FC04400042003E00000BBFA208027C005
:10072E00FC802480248074806C80A480A4A028A0E7
:10073E0030E00000BCD320002000FDE02520252065
:10074E00252025202520452045E099200000BCF5D8
:10075E00814041405FE011005F2051209F409A8010
:10076E00AEA0A96042200000CBD982005FE042001B
:10077E000FC0CA404FC0430046805A40A2009FE0BF
:10078E000000BCB07F8010801100110019C0144011
:10079E001480230023004C80B0600000CFB503C04E
:1007AE007C0008803F00040008803FC015002480B4
:1007BE0044409C200000CDB3210027E05100F20000
:1007CE00244047E0F280028032A0C4A018E000006E
:1007DE00B2BD040027C024002400FFE00400144032
:1007EE0024804100060078000000B3A42080210080
:1007FE00220024002800FFE02400220021002C808B
:10080E0030600000CBB357E0510057E05420552024
:10081E00552055205520518092408C200000CAB1A1
:10082E000080F0809FE090809480F2809280908093
:10083E00F080908003800000D5EB410041007900EC
:10084E008100F7E02100F90021002900310021008C
:10085E000000D000420023E0F4004FE0712055402C
:10086E00550055E05500B70089E00000D7AA2100D9
:10087E00F90047E06100A7E0FA0023C03840E080AD
:10088E00230020800000C4E6844042805FE0010027
:10089E00C94049404FC042004400A8009FE00000FC
:1008AE00B7BD04000240FFE008000F8008800880FA
:1008BE00108010802080C7000000CFF20400084096
:1008CE007FE040405F40514051405F4040404040DB
:0408DE0041C0000015
:0515E700ED908000F012
:0E15EC007F0A908100E0540364036002DFF484
:0115FA0022CE
:0B1642007F0A908100E020E202DFF749
:01164D00227A
:0B164E007F0A908100E020E302DFF73C
:01165900226E
:0B165A007F0A908100E020E602DFF72D
:011665002262
:0E1518007A002FFFEA35F0FEAD07AB067F2408
:10152600AE071215ECEF70037F01221215E7EF707C
:10153600037F0222EB1215E8EF70037F03229081EE
:0615460000EEF07F002220
:1015B600AE071215ECEF70037F01221215E7EF70EC
:0C15C600037F0222908100EEF07F0022E3
:050003001215FB7FB2A5
:10000800AE071215ECEF70037F0122908100EEF02D
:030018007F002244
:1015FB00AE0712164EEF70037F0122908000EEF0C3
:03160B007F00223B
:0F1633001215ECEF70037F0122908000E0FF2280
:0D159600E536253EFFE535131313541FFD08
:0415A300AC05A907E3
:0E15A700E975F014A4FFEC121518894F8C4D55
:0115B5002213
:04160E00AC05A90777
:0E161200EC75F014A4FFE912151889518C4EE6
:0116200022A7
:1014E100E4FBFD7F241215267FB0120008E4FC12F4
:1014F100164EE4FF1215FB0DBD00010CE4B505EF1E
:10150100ECB420EB7FB2120008E4FBFD7F2412153E
:0615110026E4F54FF54D44
:0115170022B1
:10146500C2B3D2B3E4FBFD7F401215267D147F4144
:10147500121526E4FD7F421215267D147F431215B1
:10148500267D0F7F221215B67FA11200087F8012DC
:1014950000087F98120008754968754A00E4F54B05
:0414A500F54CFF22E1
:0614A9008B528A538954A6
:1014AF001215D28F55E4F556AD51AF5112160EE508
:1014BF0056C39555501BAB52AA53A95485568275E6
:1014CF0083001210D524E0FD7FC01215B60556809B
:0114DF00DE2E
:0114E00022E9
:0A0C3E008F358D368B378A388939DF
:100C4800E4F53D1215D28F3FE53DC3953F400302C1
:100C58000E1CAB37AA38A939853D8275830012105E
:100C6800D5F53A853D82758300A31210D5F53BE58D
:100C780035131313541FFDAF361215A3C3E53A6499
:100C88008094805003020D41E53A648094A050346A
:100C9800E53A24F8601C24FB600424037026053D13
:100CA800E4F535E536C39470509E740C2536F53658
:100CB8008096053DE536D39408400674F82536F548
:100CC80036E4F53CE4F53EC3E53A6480949F404B36
:100CD800E53AFD3395E08D82F583740C121102E537
:100CE80082253EF582E43583F583E58224C4F582C6
:100CF800E58334FEF583E493F53C121596E5355407
:100D080007700C7FB0120008AF3C120003800CE59E
:100D180036253EFBAD35AF3C1212B0121596053E96
:100D2800E53EC3940C40A0E53A64087003020E1730
:100D380074082535F535020E17E4F53E75F01AE509
:100D48003EA424B8F582E5F03404F583E493B53A7B
:100D58001675F01AE53EA424B9F582E5F03404F5D9
:100D680083E493653B6007053EE53EB429CEE4F590
:100D780040E536254012159AE53EC39429503A7548
:100D8800F01AE53EA424BAF582E5F03404F583753B
:100D9800F002E540121113E493F53A75F01AE53EB6
:100DA800A424BBF582E5F03404F58375F002E54030
:100DB800121113E493F53B8005E4F53BF53AE5356C
:100DC8005407700C7FB0120008AF3A120003800C71
:100DD800E5362540FBAD35AF3A1212B0E5352408AB
:100DE800FD5407700C7FB0120008AF3B120003805F
:100DF8000AE5362540FBAF3B1212B00540E540C37B
:100E0800940C5003020D79740C2535F535053D0514
:060E18003D020C50AF3F4B
:010E1E0022B1
:0612B0008F418D428B43CB
:1012B600E5425407FFC374089FF5468F47E542137E
:1012C6001313541FFDAF431215A37FB1120008126A
:1012D60016338F441216338F457FB2120008E5424B
:1012E600131313541FFDAF431215A3E546900026B2
:1012F60093F45244E54690002F935541FFAE47A81C
:1013060006088002C313D8FC4244E54790002F9399
:10131600F45245E54790002693FFE5415207AE4655
:10132600EFA806088002C333D8FC42457FB01200FE
:1013360008AF441215FBAF451215FB7FB202000839
:091666008F50EF4490FF020008D0
:1013E500020E1FE493A3F8E493A34003F68001F2F1
:1013F50008DFF48029E493A3F85407240CC8C33309
:10140500C4540F4420C8834004F456800146F6DFD7
:10141500E4800B0102040810204080901573E47EDF
:10142500019360BCA3FF543F30E509541FFEE493CC
:10143500A360010ECF54C025E060A840B8E493A393
:10144500FAE493A3F8E493A3C8C582C8CAC583CABE
:10145500F0A3C8C582C8CAC583CADFE9DEE780BE76
:011595000055
:1010D500BB010CE58229F582E5833AF583E02250D0
:1010E50006E92582F8E622BBFE06E92582F8E2221A
:0D10F500E58229F582E5833AF583E4932234
:10110200F5F0C582A4C582C5F0C583A42583F58305
:0111120022BA
:0C111300A42582F582E5F03583F58322E7
:10111F00D083D082F8E4937012740193700DA3A35F
:10112F0093F8740193F5828883E473740293686073
:06113F00EFA3A3A380DF73
:1008E200E5442438F8E605442278353007027838A2
:1008F200E475F0011211700211452000EB7F2ED237
:10090200008018EF540F2490D43440D4FF30040BED
:10091200EF24BFB41A0050032461FFE545600215BD
:10092200450548E5487002054730070D7835E475FE
:10093200F001121170EF02115E02154C7403D2071E
:100942008003E4C207F5448B358A368937E4F545DE
:10095200F547F548E54560077F2012091D80F575CA
:1009620046FFC201C200C202C203C205C206C208D9
:100972001208EBFF700D3007057F0012092EAF48F9
:10098200AE4722B4255FC2D5C2041208EBFF24D0C1
:10099200B40A00501A75F00A784530D50508B6FF3A
:1009A2000106C6A426F620D5047002D20380D924FB
:1009B200CFB41A00EF5004C2E5D204020B2ED201CA
:1009C20080C6D20080C0D20280BCD2D580BAD20505
:1009D20080B47F2012091D2002077401B545004032
:1009E200F11208E2FF12091D020956D208D206804E
:1009F200951208E2FB1208E2FA1208E2F94A4B7079
:100A02000679FF7A0B7BFF20022EE545602A7E00E5
:100A12008E827583001210D560060EEE654670F068
:100A2200C2D5EBC0E0EAC0E0E9C0E0EE120B75D03F
:100A3200E0F9D0E0FAD0E0FB121145FF60AAEBC06A
:100A4200E0EAC0E0E9C0E012091DD0E02401F9D0DB
:100A5200E03400FAD0E0FBE5460460DCD546D980FC
:100A6200877BFF7A0B7971D202809C7910800279A0
:100A720008C206C2088008D2D5790A8004790AC25F
:100A8200D5E546047002F546E4FAFDFEFF1208E2DF
:100A9200FC7B082001131208E2FD7B1030000A12D1
:100AA20008E2FE1208E2FF7B20EC3382D592D55099
:100AB20013C3E43000069FFFE49EFEE42001039D81
:100AC200FDE49CFCE4CBF8C201EC700CCFCECDCCA3
:100AD200E824F8F870F38017C3EF33FFEE33FEED2E
:100AE20033FDEC33FCEB33FB994002FB0FD8E9EB0F
:100AF200300105F8D0E0C448B201C0E00AEC4D4E26
:100B02004F78207B0070C2EAB5460040BCC0E012BC
:100B12000B77D0F0D0E0200104C4C0E0C4B201C021
:100B2200F0120906D0F0D5F0EB02095612111F0996
:100B3200F3530A6D5809C44C09C0420A714F0A792D
:0F0B4200440A794909D9430A7F550A63460A6371
:100B5100450A63470C1F5009C82D09CC2E09EF2BFC
:100B610009D02309ED200C082A098848000009E76B
:100B71003F3F3F00790AA2D5200314300509B9107F
:100B8100020404B9080104A2D52006025001042080
:100B910002689202B545005034C0E07F203003194D
:100BA1007F30A20272067205500F120BCEC202C232
:100BB10006C205C2087F30800F300503E9C0E0128C
:100BC100091D300503D0E0F9D0E0B545CC3005175B
:100BD1007F30B9100C12091D7F583004077F7880CF
:100BE10003B9080312091D3002057F2D02091D7F7B
:100BF100202008F87F2B2006F322920280CF286E56
:100C0100756C6C2900D2011208E23001F8C201783A
:100C11004530D50108F60209882D5043495812087C
:100C2100E22403B405004001E4900C1A9312090E6A
:0D0C3100743A12090ED203754504020A6DD3
:1015D200E4FFFE121145600C0FEF70010E09E97075
:0515E200F20A80EF2277
:10114500BB010689828A83E0225002E722BBFE02A8
:09115500E32289828A83E49322DB
:10115E00BB010689828A83F0225002F722BBFE0170
:02116E00F3226A
:10117000FAE6FB0808E6F925F0F618E6CA3AF62280
:10154C00EFB40A07740D121557740A309811A89944
:10155C00B8130CC2983098FDA899C298B811F630FF
:07156C0099FDC299F59922D7
:00000001FF
